:020000040800F2
:1000000020040020D5000008210200081D0200087D
:1000100000000000000000000000000000000000E0
:100020000000000000000000000000004D05000876
:100030000000000000000000C5020008D105000813
:10004000E7000008E7000008B5040008E700000822
:10005000E7000008E7000008E7000008E7000008E4
:10006000E7000008E7000008E7000008E7000008D4
:10007000E7000008E7000008E7000008E7000008C4
:10008000E7000008E7000008E7000008E7000008B4
:10009000E7000008E7000008E7000008E7000008A4
:1000A000E7000008E7000008E70000085106000824
:1000B000E7000008E7000008E7000008E700000884
:1000C0000348854600F01EF800480047ED0600088A
:1000D000200400200448804704480047FEE7FEE76C
:1000E000FEE7FEE7FEE7FEE7D5050008C1000008D1
:1000F00003460A780270401C491C002AF9D11846B0
:1001000070470000064C0125064E05E0E36807CC69
:100110002B430C3C98471034B442F7D3FFF7D4FF7D
:10012000180800083808000810B53648406A012150
:1001300008433449486200BF3248406A02210840FF
:100140000228F9D12F48C069C90608432D49C86162
:100150002D480068891508432B4908602948006A22
:1001600003210902884341214902084325490862C5
:100170000846C069090488432249C861CA20234946
:1001800048625320486208468068891588431F49A1
:10019000886000BF1D48C068C007C00F0028F9D0A4
:1001A0001B481A49C861112000028860FE2048627D
:1001B00064204862174815494031086016480068B5
:1001C0000121490408431449086008468068012158
:1001D0004904084310498860084600680121C904A1
:1001E00008430D490860084680680121C904084396
:1001F000094988600021022000F028F8022000F060
:100200001BF810BD001002400070004000280040A4
:10021000808080809C8700000004014000BFFEE7D2
:1002200070470000C206D20E01219140014A1160C0
:100230007047000080E100E0C206D20E012191402B
:10024000014A11607047000000E100E010B500288D
:1002500019DA1A4A03071B0F083B9B089B00D25868
:100260008307DC0EFF23A3409A438B071B0E8407F2
:10027000E40EA3401A43114B0407240F083CA408C2
:10028000A4001A5118E00E4A03231B02D218830857
:100290009B00D2588307DC0EFF23A3409A438B07B1
:1002A0001B0E8407E40EA3401A43054B03242402CB
:1002B0001B198408A4001A5110BD00001CED00E0B9
:1002C00000E100E07047000008B50020009063489E
:1002D0000078002806D001284FD0022863D00328D8
:1002E0004AD1ACE05E480078002845D05D48C0683F
:1002F0002021084020283FD1002059490870594842
:100300000068009057484068574908600321090574
:1003100000980840000D3030544948700F210904FE
:1003200000980840000C30305049887007210903BC
:1003300000980840000B30304C4988710F210902A9
:1003400000980840000A30304849C8717021009870
:100350000840000930304549C87200980007000F76
:1003600030300873424801780078401C404A1070D1
:100370003E48405C3F4908816DE03D4800780028D8
:1003800010D13DA13948FFF7B3FE39480178007814
:10039000401C374A10703548405C364908810220BD
:1003A0002E49087057E032480078002846D137A11E
:1003B0002E48FFF79DFE2B48006B00902948C0682F
:1003C0000121C90288432749C86003210905009813
:1003D0000840000D3030254948700F21090400986D
:1003E0000840000C3030214988700721090300982B
:1003F0000840000B30301D4988710F210902009818
:100400000840000A30301949C8717021009808402E
:10041000000930301549C87200980007000F3030CD
:100420000873134801780078401C114A10700F4877
:10043000405C104908810320084908700BE00C4813
:100440000078002806D116A10848FFF751FE0020C9
:100450000249087000BF00BF08BD00001500002061
:1004600018000020002800401C000020010000208F
:1004700000000020203801400A54616D7065722030
:1004800061743A2020202020202020000A303020D3
:100490003A203030203A20303020202020200A001E
:1004A0000A2D2D203A202D2D203A202D2D202020E0
:1004B0002020200010B52148C068FF2101310840EC
:1004C000884217D11D48C06888431C49C8601C4831
:1004D0004069012149040843194948610920C006BF
:1004E0004069202148400921C90648610120154979
:1004F000087021E01148C068012189030840884242
:1005000017D10E48C06888430C49C8600C48406940
:100510000121C90408430A4948610920C00640690D
:10052000102148400921C906486101200649087088
:1005300002E00220FFF776FE10BD00000028004018
:100540000004014018000020150000207047000042
:1005500011201D4908601D4840681C494860084634
:1005600040684860084640687B21C90388431749B2
:100570004860084640680521C9040843134948609B
:10058000084600680121090608431049086000BFB9
:100590000E4800680121490608400028F8D00B48A1
:1005A0004068800880000949486008464068022188
:1005B00008430649486000BF044840680C210840D1
:1005C0000828F9D1704700000020024000100240C6
:1005D0007047000010B51A48006801210843184907
:1005E00008600846406817490840154948600846B1
:1005F0000068154908401249086008460068012152
:10060000890488430E490860084640683F21090470
:1006100088430B4948600846C06A00090001C86267
:100620000846006B09490840054908630846406BC5
:1006300040084000486300208860FFF789FF10BD34
:10064000001002400CB8FF08FFFFF6FE2CFEFCFF76
:1006500010B51948C06920210840202808D1164843
:10066000203080881549087001201549087022E063
:100670001148C06940210840402819D1114800782C
:10068000142809D100200F4908700B48006A402146
:100690000843094908620EE00A4801780078401CC6
:1006A000084A10700848405C03492031088102E084
:1006B0001B20FFF7B7FD10BD0038014016000020D9
:1006C00017000020000000200100002002E008C800
:1006D000121F08C1002AFAD170477047002001E0BC
:1006E00001C1121F002AFBD17047000000BF45481E
:1006F0004069012149040843424948610920C00674
:1007000000680F21090288430521090240180921C8
:10071000C90608602020886100BF00BF39484069D1
:10072000012149040843374948610920C00600688F
:100730000F21890488430521C90440180921C906ED
:1007400008600846406AFF21090188431030FF21F4
:10075000013108430921C906486200BF00BF29488A
:100760008069012189030843264988612648274971
:10077000C8602D20086000BF00BF2448C069402128
:1007800008404028F9D12148006A08431F490862FF
:1007900008460068402108431C49086000211B20CE
:1007A000FFF754FD1B20FFF747FD00BFFFF7BCFC20
:1007B0000020CA21164A5162532151621146C9686C
:1007C00080221143124AD16000BF00BF1049C9689E
:1007D000402211404029F9D10E490D4A11610121F1
:1007E0008905014311601146C96880229143084A76
:1007F000D160FE2151626421516200BF01E0FFF728
:1008000063FDFCE70010024088130000003801403F
:100810000028004037017F00380800080000002051
:1008200020000000CC060008580800082000002026
:1008300000040000DC060008000A3030203A2030B6
:1008400030203A20303020202020202000000000DE
:0808500001000000000000009F
:04000005080000C12E
:00000001FF
