:020000040800F2
:1000000010040020D5000008DB010008D901000819
:1000100000000000000000000000000000000000E0
:1000200000000000000000000000000019020008AD
:100030000000000000000000DD010008750200085B
:10004000E7000008E7000008E7000008E7000008F4
:10005000E7000008E7000008E7000008E7000008E4
:10006000E7000008E7000008E7000008E7000008D4
:10007000E7000008E7000008E7000008E7000008C4
:10008000E7000008E7000008E7000008E7000008B4
:10009000E7000008DD020008E7000008E7000008AC
:1000A000E7000008E7000008E7000008E700000894
:1000B000E7000008E7000008E7000008E700000884
:1000C0000348854600F014F800480047590300082B
:1000D000100400200448804704480047FEE7FEE77C
:1000E000FEE7FEE7FEE7FEE779020008C100000830
:1000F000064C0125064E05E0E36807CC2B430C3C7B
:1001000098471034B442F7D3FFF7DEFFA803000886
:10011000C803000830B526488169264A1143816129
:100120004169920411434161234802680321890413
:100130008A43410252180260204802680A43026062
:100140001F48002484621F49C1628910416381698C
:10015000682211438161016A012211430162184939
:1001600040314D68D3031D434D6017498C62174CD5
:10017000CC628C6940252C438C610C6A14430C6260
:10018000114C403465681D436560CB681343CB60F8
:100190000168114301604169114341610C495005F7
:1001A00008600C490868FF2212029043086030BDC5
:1001B0000010024001000600000400480000014059
:1001C00000480140350500000044014083A60000BE
:1001D00000E100E014E400E0FEE770477047000033
:1001E000F0B5002101240B4A074608461378022582
:1001F00026460BE03A46CA4022408A4092B280002E
:10020000002A01D0284300E03043491C9942F1D331
:10021000F0BD0000000000207047000013491120CD
:1002200008601348416841604168416041687B2231
:10023000D2039143416041680522D20411434160D9
:100240000168012212061143016001688901FCD591
:100250004168890889004160416802221143416078
:1002600041680907890F0229FAD17047002002402E
:10027000001002407047000010B5144801680122C8
:10028000114301604168124A114041600168114AFE
:1002900011400160016801229204914301604168AC
:1002A0003F22120491434160C16A09090901C162F8
:1002B000016B094A11400163416B490849004163E0
:1002C00000218160FFF7AAFF10BD0000001002406E
:1002D0000CB8FF08FFFFF6FE2CFEFCFF10B513481C
:1002E000002283781249012B16D143785C000379F0
:1002F0009C4211D9202B0CD2C270C268DA40D207BE
:10030000D20F8A6902D01024224301E0094C224016
:100310008A615B1C037103E00123C3708270027168
:100320000869044A0F321040086110BD0000002027
:1003300000440140EFFF000002E008C8121F08C19E
:10034000002AFAD170477047002001E001C1121F56
:10035000002AFBD170470000FFF7DCFE03273F03B4
:100360000E4C0F4D0126E088218980010843384357
:1003700080B26081FFF734FFE060A67068693043A7
:10038000686128683043286000E030BFE0780028CA
:10039000FBD02868034908402860E4E700000020FB
:1003A00000440140FEFF0000C803000800000020D8
:1003B0001000000038030008D803000810000020D7
:1003C00000040000480300080E4000000000170071
:0803D000010000000000000024
:04000005080000C12E
:00000001FF
