:020000040800F2
:1000000008040020D5000008D5010008B901000847
:1000100000000000000000000000000000000000E0
:100020000000000000000000000000001F020008A7
:1000300000000000000000001D0200087902000816
:10004000E7000008E7000008E7000008E7000008F4
:10005000E70000087D010008E7000008E70000084D
:10006000E7000008E700000815010008E7000008A5
:10007000E7000008E7000008E7000008E7000008C4
:10008000E7000008E7000008E7000008E7000008B4
:10009000E7000008E7000008E7000008BD010008CD
:1000A000E7000008E7000008E7000008E700000894
:1000B000E7000008E7000008E7000008E700000884
:1000C0000348854600F014F8004800470103000883
:1000D000080400200448804704480047FEE7FEE784
:1000E000FEE7FEE7FEE7FEE77D020008C10000082C
:1000F000064C0125064E05E0E36807CC2B430C3C7B
:1001000098471034B442F7D3FFF7DEFF8C040008A1
:10011000AC04000870B51648016801238905002960
:1001200021DA4168421511434160124A09211578CC
:100130000024C906812D04D114704D691026754024
:100140004D615578822D04D154704A692024624053
:100150004A61016B49084900016302214163016B57
:100160001943016370BD012003498002086070BD1E
:10017000000002400200002080E100E00B484169DD
:100180000122114341610A498869C0070CD009481E
:10019000436893434360022383604368134343608F
:1001A00048684A141043486070470000000401404A
:1001B0000058004040000240FEE70000044881690A
:1001C000090703D5C16908221143C16170470000C6
:1001D00000540040704700008307FF22DB0E9A4066
:1001E0008907090E994000280BDA0007000F08382C
:1001F000830808489B001818C36993430B43C361E5
:100200007047830804489B001B18186890430843F4
:100210001860704700ED00E000E400E070477047B0
:1002200013491120086013484168416041684160EA
:1002300041687B22D2039143416041680522D20488
:1002400011434160016801221206114301600168F7
:100250008901FCD541688908890041604168022212
:100260001143416041680907890F0229FAD170479B
:1002700000200240001002407047000010B51448F2
:1002800001680122114301604168124A1140416036
:100290000168114A114001600168012292049143F2
:1002A000016041683F22120491434160C16A09091B
:1002B0000901C162016B094A11400163416B4908A0
:1002C0004900416300218160FFF7AAFF10BD0000D3
:1002D000001002400CB8FF08FFFFF6FE2CFEFCFFEA
:1002E00002E008C8121F08C1002AFAD170477047FF
:1002F000002001E001C1121F002AFBD1704700005D
:10030000554C606901214904084360610926F606DD
:1003100030680F2109028843052109024018306026
:10032000606901218904084360614C4D6868C021FF
:1003300008436860286A11210002000A0906401873
:10034000286228680F2109038843052149034018C2
:1003500028606069012738436061424840498163F1
:100360004149C16302214163016B8322114301634F
:1003700000210A20FFF730FF3C4821150160E069A9
:10038000C9020843E061206B1021084320630B2160
:100390003348090524380161354901608168B42278
:1003A000114381608168C2131143816000211720CD
:1003B000FFF712FF2D486903016060694911084386
:1003C000606168680321890208436860686AFF21E8
:1003D00009028843112109024018686228680F2128
:1003E000090588430521490540182860606938439C
:1003F00060611C481F494030C1601B49891E016172
:100400004168902211434160E06929030843E0619B
:100410001848194928380161184901601849416094
:100420006069E901084360613068800880003060DD
:10043000144881680909090181601348016839433A
:10044000016081683943816000210520FFF7C4FE07
:10045000064820210160FEE7001002400004004829
:1004600024540040000002400200002000E100E0AF
:1004700009800000285800404B1AB00001400000DD
:10048000B40002020000014000040140AC04000876
:100490000000002004000000E0020008B004000892
:1004A0000400002004040000F00200088182000023
:04000005080000C12E
:00000001FF
