:020000040800F2
:1000000010040020D5000008530100085101000829
:1000100000000000000000000000000000000000E0
:100020000000000000000000000000009B0100082C
:10003000000000000000000099010008F501000820
:10004000E7000008E7000008E7000008E7000008F4
:10005000E700000841010008E7000008E700000889
:10006000E7000008E7000008E7000008E7000008D4
:10007000E7000008E7000008E7000008E7000008C4
:10008000E7000008E7000008E7000008E7000008B4
:10009000E7000008E7000008E7000008E7000008A4
:1000A000E7000008E7000008E7000008E700000894
:1000B000E7000008E7000008E7000008E700000884
:1000C0000348854600F02AF800480047ED02000882
:1000D000100400200448804704480047FEE7FEE77C
:1000E000FEE7FEE7FEE7FEE769020008C100000840
:1000F00030B50B46014600202022012409E00D46C0
:10010000D5409D4205D31D469540491B2546954047
:1001100040191546521E002DF1DC30BD064C01255C
:10012000064E05E0E36807CC2B430C3C984710349F
:10013000B442F7D3FFF7C8FFA8030008C8030008BC
:1001400002484169012211434161FEE70004014078
:10015000FEE770478307FF22DB0E9A408907090EEE
:10016000994000280BDA0007000F08388308084878
:100170009B001818C36993430B43C36170478308FE
:1001800004489B001B181868904308431860704788
:1001900000ED00E000E400E07047704713491120D3
:1001A00008601348416841604168416041687B22B2
:1001B000D2039143416041680522D204114341605A
:1001C0000168012212061143016001688901FCD512
:1001D00041688908890041604168022211434160F9
:1001E00041680907890F0229FAD1704700200240AF
:1001F0000010024010B51748416A184C8A00164991
:100200000ED52268002A03D0521E1020226005E07D
:10021000426A01231B061A434262181188610DE0ED
:100220006068401C6060012803D14A6920235A405D
:100230004A61FF21F531FFF75BFF6160A068401C58
:10024000A060502804D10020A0600649044808603E
:1002500010BD000000100240000000480000002017
:10026000AAAA00000030004010B51448016801221D
:10027000114301604168124A114041600168114A0E
:1002800011400160016801229204914301604168BC
:100290003F22120491434160C16A09090901C16208
:1002A000016B094A11400163416B490849004163F0
:1002B00000218160FFF772FF10BD000000100240B6
:1002C0000CB8FF08FFFFF6FE2CFEFCFF02E008C89A
:1002D000121F08C1002AFAD170477047002001E0C0
:1002E00001C1121F002AFBD170470000254A506946
:1002F00001246404204350610923DB0618680F21A0
:10030000090288430521090240181860506A01213A
:1003100008435062506A8007FCD51C481A4D05609E
:100320001B4D05604160FF25F5358560C568002DD2
:10033000FCD1FA2505615069204350611868800896
:100340008000186013488268120912018260124806
:1003500002680A43026082680A4382600021052025
:10036000FFF7F8FE0D49202008600E4C0C48606134
:100370000321081FFFF7EEFE0020A0610720206187
:10038000FEE7000000100240CCCC0000003000402E
:1003900055550000000001400004014000E100E06C
:1003A0007FBB000000E000E0C80300080000002060
:1003B0000C000000CC020008D40300080C00002050
:1003C00004040000DC020008D00700000000000068
:0403D0000000000029
:04000005080000C12E
:00000001FF
