:020000040800F2
:1000000010040020D50000081701000815010008A1
:1000100000000000000000000000000000000000E0
:100020000000000000000000000000001B010008AC
:100030000000000000000000190100087501000820
:10004000E7000008E7000008E7000008E7000008F4
:10005000E7000008E7000008E7000008E7000008E4
:10006000E7000008E7000008E7000008E7000008D4
:10007000E7000008E7000008E7000008E7000008C4
:10008000E7000008E7000008E7000008E7000008B4
:10009000E7000008E7000008E7000008E7000008A4
:1000A000E7000008E7000008E7000008E700000894
:1000B000E7000008E7000008E7000008E700000884
:1000C0000348854600F014F8004800476502000820
:1000D000100400200448804704480047FEE7FEE77C
:1000E000FEE7FEE7FEE7FEE7E1010008C1000008C9
:1000F000064C0125064E05E0E36807CC2B430C3C7B
:1001000098471034B442F7D3FFF7DEFF78030008B6
:1001100098030008FEE770477047704713491120A5
:1001200008601348416841604168416041687B2232
:10013000D2039143416041680522D20411434160DA
:100140000168012212061143016001688901FCD592
:100150004168890889004160416802221143416079
:1001600041680907890F0229FAD17047002002402F
:100170000010024030B51848FF2482681749521E0B
:10018000C82301348260521C10D105886200002D02
:100190001BD00588FF2D09D005886D006D1E458098
:1001A0007D252D018560C3608C618A624288002AAA
:1001B0000AD0C5686D1EC5606D1C05D14D696540CE
:1001C0004D61521EC360428030BD4D6955404D6146
:1001D0007D22D2008260E9E700000020000800488C
:1001E00010B5144801680122114301604168124AA8
:1001F000114041600168114A11400160016801220B
:1002000092049143016041683F221204914341608E
:10021000C16A09090901C162016B094A1140016300
:10022000416B49084900416300218160FFF776FF77
:1002300010BD0000001002400CB8FF08FFFFF6FEE2
:100240002CFEFCFF02E008C8121F08C1002AFAD1E8
:1002500070477047002001E001C1121F002AFBD146
:10026000704700003C4841690122D20411434161BA
:100270004169921011434161384909680F22120403
:100280009143052212048918344A11600921C906D4
:100290000A680C231A430A60324A31495161324BD1
:1002A0000721DC692402240A8D072C43DC6100232A
:1002B00093611161826943151A438261436B012284
:1002C00013434363436B9B07FCD528488368DB07D4
:1002D00003D083685B085B00836083680124E407C4
:1002E000234383608368002BFCDB836813438360B4
:1002F0000368DB07F9D0C2680123DB031A43C2603D
:100300000222826243690B43436119498B68540599
:1003100023438B60154D04241649403507E083685C
:100320002343836003685B07FCD52B688B800B88B5
:10033000002BF4D08168490703D581681023194345
:1003400081608168C906FCD481681143816081683D
:10035000C907FCD1FEE70000001002400008004879
:100360007FBB000000E000E004ED00E0002401405D
:100370000027014000000020980300080000002032
:100380001000000044020008A8030008100000202C
:1003900000040000540200080000000000000000FB
:0803A000E8030000C8000000A2
:04000005080000C12E
:00000001FF
