:020000040800F2
:1000000010040020D500000819010008150100089F
:1000100000000000000000000000000000000000E0
:10002000000000000000000000000000B501000812
:10003000000000000000000081010008110200081B
:10004000E7000008E7000008E7000008E7000008F4
:1000500085010008E7000008E7000008E700000845
:10006000E7000008E7000008E7000008E7000008D4
:10007000E7000008E7000008E7000008E7000008C4
:10008000E7000008E7000008E7000008E7000008B4
:10009000E7000008E7000008E7000008E7000008A4
:1000A000E7000008E7000008E7000008E700000894
:1000B000E7000008E7000008E7000008E700000884
:1000C0000348854600F014F800480047FD02000888
:1000D000100400200448804704480047FEE7FEE77C
:1000E000FEE7FEE7FEE7FEE779020008C100000830
:1000F000064C0125064E05E0E36807CC2B430C3C7B
:1001000098471034B442F7D3FFF7DEFFA40300088A
:10011000C4030008FEE7000006488168090607D509
:10012000054A0121118081680122D20511438160B5
:100130007047000000100240000000208307FF22EB
:10014000DB0E9A408907090E994000280BDA000758
:10015000000F0838830808489B001818C3699343A8
:100160000B43C3617047830804489B001B18186841
:10017000904308431860704700ED00E000E400E0A1
:10018000704700000948816809070AD58168012283
:10019000D20411438160416889088900491C41608B
:1001A0007047034904200880704700000010024097
:1001B0000000002070470000134911200860134818
:1001C000416841604168416041687B22D2039143AC
:1001D000416041680522D204114341600168012257
:1001E00012061143016001688901FCD54168890844
:1001F000890041604168022211434160416809075A
:10020000890F0229FAD170470020024000100240F5
:1002100030B5184809214268C906521EC823102467
:100220004260521C10D105882022002D1BD0058869
:10023000FF2D09D005886D006D1E45807D252D019F
:10024000456083608C618A624288002A0AD0856892
:100250006D1E85606D1C05D14D6965404D61521E56
:100260008360428030BD4D6955404D617D22D20092
:100270004260E9E70000002010B51448016801223F
:10028000114301604168124A114041600168114AFE
:1002900011400160016801229204914301604168AC
:1002A0003F22120491434160C16A09090901C162F8
:1002B000016B094A11400163416B490849004163E0
:1002C00000218160FFF778FF10BD000000100240A0
:1002D0000CB8FF08FFFFF6FE2CFEFCFF02E008C88A
:1002E000121F08C1002AFAD170477047002001E0B0
:1002F00001C1121F002AFBD170470000234CE069A6
:1003000021040843E061224801688215114301601D
:1003100060695102084360610920C00601680F222C
:100320001202914305221202891801601A4E1948DF
:1003300070610321081FFFF701FF0025B561072049
:100340003061012615491020086029460420FFF776
:10035000F5FEA068E1140843A060206809210904A3
:1003600008432060206A304320620D480221626801
:100370001207920F012A028803D0002AF7D10180C8
:10038000F5E7FF2AF3D10580F1E7000000100240F5
:10039000007000403F1F000000E000E000E100E0CE
:1003A00000000020C4030008000000200C00000032
:1003B000DC020008D00300080C0000200404000048
:1003C000EC020008FF000000E8030000C800000085
:04000005080000C12E
:00000001FF
