:020000040800F2
:1000000018040020D50000088901000885010008B7
:1000100000000000000000000000000000000000E0
:1000200000000000000000000000000007020008BF
:10003000000000000000000005020008890200081E
:10004000E7000008E7000008E7000008E7000008F4
:10005000E7000008E7000008E7000008E7000008E4
:10006000E7000008E7000008E7000008E7000008D4
:10007000E7000008E7000008E7000008E7000008C4
:10008000E7000008E7000008E7000008B1030008E7
:10009000E7000008E7000008E7000008E7000008A4
:1000A000E7000008E7000008E7000008E700000894
:1000B000E7000008E7000008E7000008E700000884
:1000C0000348854600F014F8004800470D05000875
:1000D000180400200448804704480047FEE7FEE774
:1000E000FEE7FEE7FEE7FEE735030008C100000873
:1000F000064C0125064E05E0E36807CC2B430C3C7B
:1001000098471034B442F7D3FFF7DEFFCC05000860
:10011000EC05000810B51848C069FF2101310843FB
:100120001549C86115488069392108431349886118
:100130000846C068022108431049C8601320012105
:1001400081400F4A116000BF002100F01FF80B48EA
:1001500040300069022108430849403108610748DE
:10016000006801210843054908600846006A01212A
:1001700008430249086210BD001002400020004000
:1001800000E100E000BFFEE77047000010B5002866
:1001900019DA1A4A03071B0F083B9B089B00D25829
:1001A0008307DC0EFF23A3409A438B071B0E8407B3
:1001B000E40EA3401A43114B0407240F083CA40883
:1001C000A4001A5118E00E4A03231B02D218830818
:1001D0009B00D2588307DC0EFF23A3409A438B0772
:1001E0001B0E8407E40EA3401A43054B032424028C
:1001F0001B198408A4001A5110BD00001CED00E07A
:1002000000E100E07047704711201D4908601D485B
:1002100040681C4948600846406848600846406895
:100220007B21C90388431749486008464068052177
:10023000C9040843134948600846006801210906BB
:1002400008431049086000BF0E48006801214906B4
:1002500008400028F8D00B48406880088000094911
:10026000486008464068022108430649486000BFCC
:10027000044840680C2108400828F9D17047000064
:100280000020024000100240264801680068401E1D
:10029000244A1060002927D12348008800280CD167
:1002A0000920C0064069202148400921C90648614B
:1002B0007D20C0001146086016E01B480088FF281A
:1002C00012D0194800884000401E18490880C820F4
:1002D000174908607D20000112490860102009219B
:1002E000C90688612020886210480088002817DD30
:1002F0000F4801680068401E0D4A106000290FD1A8
:100300000920C0064069102148400921C9064861FA
:10031000C8201146086005480088401E034908802F
:10032000704700000800002000000020100000209E
:100330000C00002010B51A48006801210843184934
:100340000860084640681749084015494860084653
:1003500000681549084012490860084600680121F4
:10036000890488430E490860084640683F21090413
:1003700088430B4948600846C06A00090001C8620A
:100380000846006B09490840054908630846406B68
:1003900040084000486300208860FFF735FF10BD2B
:1003A000001002400CB8FF08FFFFF6FE2CFEFCFF19
:1003B00010B5474A126902231A40002A72D0444AF3
:1003C00012691B021A40002A09D00022414B1A80F0
:1003D0003F4A1269404B1A403D4B1A6110BD3D4ADD
:1003E0001288002A07D13A4A526B3C4B1A800122EC
:1003F000384B1A8069E03A4A1268F8231A40D0084C
:10040000334A526B91B2354A1288914205DD334A24
:1004100012888A1A2F4B1A8006E04A1E2F4B1B881F
:10042000D21A521C2B4B1A802A4A12880B239B018A
:100430009A4205DB274A1288CF239B009A4206DDA9
:100440000022244B1A800222264B1A802EE0214AD9
:100450001288254B9A420FDD1E4B1B88224C641CD0
:100460001A1BD3179B0F9B189B105B1CC31A98B2C7
:1004700001221C4B1A8019E0164A12881A4B1B1FC6
:100480009A4210DA134B1B88174C641FE21AD317D9
:100490009B0F9B189B105B1C1B1898B20122114BE1
:1004A0001A8003E00EE000220E4B1A800C4A1268FC
:1004B000F8239A43C3001A43094B1A600022054BE4
:1004C0001A8002E00422074B1A8000BF86E7000072
:1004D0000020004002000020FDFDFFFF040000207E
:1004E00000100240000000200203000002E008C8E3
:1004F000121F08C1002AFAD170477047002001E09E
:1005000001C1121F002AFBD17047000000BF2B4819
:100510004069012149040843284948610920C0066F
:1005200000680F21090288430521090240180921AA
:10053000C9060860084600680321090488430121B0
:10054000490440180921C90608600846806803214B
:10055000090408430921C906886000BF184C601EC1
:100560001849884200D90CE0601E174948610321F0
:10057000081FFFF70BFE0020134988610720086160
:1005800000BF00BF0D4840680521090608430B491C
:1005900048600846006801210904084307490860CB
:1005A00000BF00BF05480068012149040840002839
:1005B000F8D000BFFFF7AEFD00BFFEE7001002401D
:1005C00080BB0000FFFFFF0000E000E0EC0500083A
:1005D0000000002014000000EC04000800060008E1
:1005E0001400002004040000FC040008FF000000C8
:1005F00000000000E8030000C80000000000000048
:04000005080000C12E
:00000001FF
