:020000040800F2
:1000000010040020D50000087901000875010008DF
:1000100000000000000000000000000000000000E0
:10002000000000000000000000000000390300088C
:10003000000000000000000009020008BD030008E5
:10004000E7000008E7000008E7000008E7000008F4
:10005000E700000815010008E7000008E7000008B5
:10006000E7000008E7000008E7000008E7000008D4
:10007000E7000008E7000008E7000008E7000008C4
:10008000E7000008E7000008E7000008E7000008B4
:10009000E7000008E7000008E7000008E7000008A4
:1000A000E70000080D020008C5020008E70000088C
:1000B000E7000008E7000008E7000008E700000884
:1000C0000348854600F014F800480047B9040008CA
:1000D000100400200448804704480047FEE7FEE77C
:1000E000FEE7FEE7FEE7FEE71D040008C10000088A
:1000F000064C0125064E05E0E36807CC2B430C3C7B
:1001000098471034B442F7D3FFF7DEFFD806000853
:10011000F806000811484069012108430F49486169
:1001200000200860C8200E4908700E48806802212F
:10013000084002280AD1ED200B490873CA2009495A
:10014000087300200949087009490870034840698C
:100150000121084301494861704700000004014043
:100160000000002000300140003800400200002064
:100170000600002000BFFEE770470000C206D20E56
:1001800001219140014A11607047000000E100E048
:1001900010B5002819DA1A4A03071B0F083B9B0801
:1001A0009B00D2588307DC0EFF23A3409A438B07A2
:1001B0001B0E8407E40EA3401A43114B0407240FBF
:1001C000083CA408A4001A5118E00E4A03231B029D
:1001D000D21883089B00D2588307DC0EFF23A3406C
:1001E0009A438B071B0E8407E40EA3401A43054B6A
:1001F000032424021B198408A4001A5110BD000016
:100200001CED00E000E100E070470000284A926821
:1002100090B2C207D20F002A32D0254AD268D1B29A
:10022000244A1278002A01D1234A1180214A1278E7
:10023000521C204B1A701A461278012A11D1ED2255
:100240001E4B1A73CA221A4B1A731C4A12689B144B
:100250001A431A4B1A60164A12689B141A43144B1D
:100260001A60154A1288CA2A07D1154A5269012311
:100270005B025A40124B5A6102E04022104B9A61D5
:1002800010220240102A02D10022094B9A6040221B
:100290000240402A0AD1064AD268D1B2044A5268C2
:1002A000034B5A601A4692689A6000BF704700007C
:1002B000003001400200002004000020003800400F
:1002C0000008004817488068C007C00F00281DD0EC
:1002D0001448C068C1B214480078002801D11348FE
:1002E000018011480078401C0F4A10700F480088A8
:1002F000ED2806D10E484069802250400C4A5061DA
:100300000FE0FF2001300A4A90610AE0FF2001302F
:10031000074A90611A2001228240064B1A6000BFF2
:1003200000BF704700380040060000200800002091
:100330000008004880E100E07047000011201D49DE
:1003400008601D4840681C4948600846406848608D
:10035000084640687B21C90388431749486008461E
:1003600040680521C90408431349486008460068ED
:100370000121090608431049086000BF0E480068C3
:100380000121490608400028F8D00B484068800841
:100390008000094948600846406802210843064930
:1003A000486000BF044840680C2108400828F9D183
:1003B0007047000000200240001002401048007802
:1003C00000280CD00E480078401E0D49087001200E
:1003D0000C4948610A480078012800D108600A48A1
:1003E000007800280AD1ED2008490873CA2008497E
:1003F000087300200749087007490870704700001B
:1004000000000020000401400100002000380040EE
:1004100000300140020000200600002010B51A48FC
:1004200000680121084318490860084640681749D8
:1004300008401549486008460068154908401249B7
:100440000860084600680121890488430E49086055
:10045000084640683F21090488430B494860084624
:10046000C06A00090001C8620846006B09490840DB
:10047000054908630846406B400840004863002077
:100480008860FFF75BFF10BD001002400CB8FF084A
:10049000FFFFF6FE2CFEFCFF02E008C8121F08C199
:1004A000002AFAD170477047002001E001C1121FF5
:1004B000002AFBD1704700007B4C601E7B498842BC
:1004C00000D90CE0601E7A4948610321081FFFF73C
:1004D0005FFE0020764988610720086100BF00BFE9
:1004E000744840690121C90408437249486172484F
:1004F00000680F21090388430521090340186E494C
:100500000860084600680F21090488430521090492
:1005100040186949086000BF8020886100BF6548B5
:1005200040698901084363494861084640690121DF
:10053000890408435F4948610920C00600688000BB
:100540008008C90440180921C90608605B48006892
:100550003F21890188431521C90140185749086086
:100560000920C006006A0F21090488430921C90631
:1005700008620846006A524908405049086200BFB4
:1005800000BF4C488069012109030843494988613B
:100590003C204C490860084600680521C902084310
:1005A0004849086048484860084640682021084398
:1005B00044494860084600684021084341490860B2
:1005C00000211920FFF7E4FD1920FFF7D7FD00BF38
:1005D00000BF384840690121890408433549486112
:1005E000364800680002000A552149064018334980
:1005F00008600846406A81B23048416200BF00BFCF
:100600002C48C0690121890308432A49C8612F4841
:1006100000680521C90208432C49086008460068A3
:1006200049150843294908605D2080014860084653
:100630000068402108432549086000211A20FFF77F
:10064000A7FD1A20FFF79AFD00BF00BF19484069B7
:10065000012149040843174948610920C006006880
:10066000800880000921C906086000BF00BF184843
:100670008068000900011649886016480068012159
:10068000084314490860084680680121084311495D
:10069000886000210520FFF77BFD0520FFF76EFD38
:1006A00000BF00BFFEE7000080BB0000FFFFFF00AF
:1006B00000E000E00010024000080048000400488C
:1006C000FF0F00FF003001404417000000380040D9
:1006D0000000014000040140F8060008000000206E
:1006E0000C00000098040008040700080C0000201B
:1006F00004040000A804000800000000000000003E
:0407000000000000F5
:04000005080000C12E
:00000001FF
