:020000040800F2
:1000000010040020D5000008C7010008C501000841
:1000100000000000000000000000000000000000E0
:10002000000000000000000000000000CB010008FC
:100030000000000000000000C901000825020008BF
:10004000E7000008E7000008E7000008E7000008F4
:10005000E7000008E7000008E7000008E7000008E4
:10006000E7000008E7000008E7000008E7000008D4
:10007000E7000008E7000008E7000008E7000008C4
:10008000E7000008E7000008E7000008E7000008B4
:10009000E7000008E7000008E7000008E7000008A4
:1000A000E7000008E7000008E7000008E700000894
:1000B000E7000008E7000008E7000008E700000884
:1000C0000348854600F014F8004800471103000873
:1000D000100400200448804704480047FEE7FEE77C
:1000E000FEE7FEE7FEE7FEE78D020008C10000081C
:1000F000064C0125064E05E0E36807CC2B430C3C7B
:1001000098471034B442F7D3FFF7DEFFF00300083E
:100110001004000830B513490B69022213430B6128
:1001200048610869402318430861C868C007FCD1CA
:10013000C8688006C86801D5202309E0C4060A48BB
:100140001023002C048806DA08252C430480C86894
:100150001843C86001E01C430480086990430861AB
:1001600030BD0000002002400000002010B5134AFE
:1001700013690124234313610180D068C007FCD1B7
:10018000D0688006D06801D520210DE041070C48D9
:1001900002D50421018006E0D168CB061021002B96
:1001A00005DA08230380D0680843D06000E00180AE
:1001B000106940084000106110BD0000002002409E
:1001C00000000020FEE77047704770471349112078
:1001D00008601348416841604168416041687B2282
:1001E000D2039143416041680522D204114341602A
:1001F0000168012212061143016001688901FCD5E2
:1002000041688908890041604168022211434160C8
:1002100041680907890F0229FAD17047002002407E
:100220000010024030B5184809218268C906521EE4
:10023000642310248260521C10D105882022002DD6
:100240001BD00588FF2D09D005886D006D1E4580E7
:100250007D252D018560C3608C618A624288002AF9
:100260000AD0C5686D1EC5606D1C05D14D6965401D
:100270004D61521EC360428030BD4D6955404D6195
:100280007D22D2008260E9E70000002010B514480A
:1002900001680122114301604168124A1140416026
:1002A0000168114A114001600168012292049143E2
:1002B000016041683F22120491434160C16A09090B
:1002C0000901C162016B094A11400163416B490890
:1002D0004900416300218160FFF778FF10BD0000F5
:1002E000001002400CB8FF08FFFFF6FE2CFEFCFFDA
:1002F00002E008C8121F08C1002AFAD170477047EF
:10030000002001E001C1121F002AFBD1704700004C
:100310002B48416901225204114341610920C00662
:1003200001680F221202914305221202891801600E
:1003300025482449416125490722CB691B021B0A34
:1003400044042343CB610021816102612048C168DC
:10035000C907FCD10169090603D51E4941601E4940
:1003600041601E4D022628681D4C401C21D166604C
:100370001FE02846FFF7CEFE0121890201226818FE
:100380008038C06F401C02D0238813432380091F8C
:10039000F5D114492846FFF7E9FE10481249801CA0
:1003A000FFF7E4FE11492868884202D020883043D4
:1003B00020806068401E6060401CDAD1FEE70000CB
:1003C000001002407FBB000000E000E004ED00E010
:1003D0000020024023016745AB89EFCD00200008D3
:1003E0000000002033CC000055AA000033CC55AAF1
:1003F000100400080000002010000000F0020008B7
:100400002004000810000020000400000003000881
:100410000000000001000000E8030000640000008C
:04000005080000C12E
:00000001FF
