:020000040800F2
:1000000000040020D50000081701000815010008B1
:1000100000000000000000000000000000000000E0
:100020000000000000000000000000001B010008AC
:100030000000000000000000190100087501000820
:10004000E7000008E7000008E7000008E7000008F4
:10005000E7000008E7000008E7000008E7000008E4
:10006000E7000008E7000008E7000008E7000008D4
:10007000E7000008E7000008E7000008E7000008C4
:10008000E7000008E7000008E7000008E7000008B4
:10009000E7000008E7000008E7000008E7000008A4
:1000A000E7000008E7000008E7000008E700000894
:1000B000E7000008E7000008E7000008E700000884
:1000C0000348854600F014F800480047FD01000889
:1000D000000400200448804704480047FEE7FEE78C
:1000E000FEE7FEE7FEE7FEE779010008C100000831
:1000F000064C0125064E05E0E36807CC2B430C3C7B
:1001000098471034B442F7D3FFF7DEFF48020008E7
:1001100058020008FEE770477047704713491120E6
:1001200008601348416841604168416041687B2232
:10013000D2039143416041680522D20411434160DA
:100140000168012212061143016001688901FCD592
:100150004168890889004160416802221143416079
:1001600041680907890F0229FAD17047002002402F
:10017000001002407047000010B5144801680122C9
:10018000114301604168124A114041600168114AFF
:1001900011400160016801229204914301604168AD
:1001A0003F22120491434160C16A09090901C162F9
:1001B000016B094A11400163416B490849004163E1
:1001C00000218160FFF7AAFF10BD0000001002406F
:1001D0000CB8FF08FFFFF6FE2CFEFCFF02E008C88B
:1001E000121F08C1002AFAD170477047002001E0B1
:1001F00001C1121F002AFBD170470000104841695D
:1002000005225204114341610E490A680F231B0461
:100210009A4305231B04D2180A600921C9060B68FA
:10022000032212040124934364041B190B608B689E
:1002300013438B604168620211434160FEE7000096
:10024000001002400008004858020008000000208A
:0802500000040000EC010008AD
:04000005080000C12E
:00000001FF
