:020000040800F2
:1000000018040020D5000008B3010008B101000861
:1000100000000000000000000000000000000000E0
:10002000000000000000000000000000FB010008CC
:100030000000000000000000F9010008550200085F
:10004000E7000008E7000008E7000008E7000008F4
:10005000E700000855010008E7000008E700000875
:10006000E7000008E7000008E7000008E7000008D4
:1000700015010008E7000008E7000008E700000895
:10008000E7000008E7000008E7000008E7000008B4
:10009000E7000008E7000008E7000008E7000008A4
:1000A000E7000008E7000008E7000008E700000894
:1000B000E7000008E7000008E7000008E700000884
:1000C0000348854600F014F800480047450300083F
:1000D000180400200448804704480047FEE7FEE774
:1000E000FEE7FEE7FEE7FEE7C1020008C1000008E8
:1000F000064C0125064E05E0E36807CC2B430C3C7B
:1001000098471034B442F7D3FFF7DEFF9804000895
:10011000B80400080C480168CA060C490ED50C4A00
:100120008315936193039361036810221343036063
:100130008368134383600888012201E00888042251
:100140001043088070470000002401400000002098
:100150000008004810B513494869C20712481ED06C
:100160004A6901231A434A6110498A68520711D526
:10017000096849070DD50D4940310A68C168044630
:100180004B001034491CE252C160042901D3002104
:10019000C16010BD018802221143018010BD018899
:1001A0000822F9E70004014000000020002401407B
:1001B000FEE770478307FF22DB0E9A408907090E8E
:1001C000994000280BDA0007000F08388308084818
:1001D0009B001818C36993430B43C361704783089E
:1001E00004489B001B181868904308431860704728
:1001F00000ED00E000E400E0704770471349112073
:1002000008601348416841604168416041687B2251
:10021000D2039143416041680522D20411434160F9
:100220000168012212061143016001688901FCD5B1
:100230004168890889004160416802221143416098
:1002400041680907890F0229FAD17047002002404E
:100250000010024030B51848FF2442681749521E6A
:10026000642301344260521C10D105886200002DC5
:100270001BD00588FF2D09D005886D006D1E4580B7
:100280007D252D01456083608C618A624288002A49
:100290000AD085686D1E85606D1C05D14D6965406D
:1002A0004D61521E8360428030BD4D6955404D61A5
:1002B0007D22D2004260E9E70000002000080048EB
:1002C00010B5144801680122114301604168124AC7
:1002D000114041600168114A11400160016801222A
:1002E00092049143016041683F22120491434160AE
:1002F000C16A09090901C162016B094A1140016320
:10030000416B49084900416300218160FFF776FF96
:1003100010BD0000001002400CB8FF08FFFFF6FE01
:100320002CFEFCFF02E008C8121F08C1002AFAD107
:1003300070477047002001E001C1121F002AFBD165
:1003400070470000494F78690121C904084378616A
:10035000474D28680F2109048843052109044018E6
:1003600028607869A901084378614248012606603F
:10037000866041482021016031460520FFF71AFFC1
:10038000B86971020843B861786B30437863786B61
:100390008007FCD5394CA068C00703D0A06840088E
:1003A0004000A060A0680121C9070843A060A068C0
:1003B0000028FCDB7869072149040843786109219A
:1003C000C9060A680C2002430A602D490A680243E4
:1003D0000A602868032108432860A0683043A060B1
:1003E0002068C007F9D0E068072149030843E060AE
:1003F0002448A06260690726304360611020606075
:1004000021488168012292051143816081141A48B4
:10041000016000210C20FFF7CDFE1C480027C760BB
:10042000A16804221143A160D101A96100E030BF9D
:1004300001880029FBD0A068400703D5A0681021DF
:100440000843A060A068C006FCD4A068022108434D
:10045000A060A068C007FCD10E4C0D48606103216C
:10046000081FFFF7A7FEA7612661FEE70010024004
:10047000000800480004014000E100E000240140C1
:10048000000400480206020000270140000000208E
:100490007FBB000000E000E0B8040008000000207E
:1004A0001800000024030008D004000818000020F1
:1004B000000400003403000800000000E80300000E
:1004C00064000000000000000000000000000000C8
:04000005080000C12E
:00000001FF
