:020000040800F2
:1000000000040020D50000087F0100087D010008E1
:1000100000000000000000000000000000000000E0
:100020000000000000000000000000008301000844
:10003000000000000000000081010008DD01000850
:10004000E7000008E7000008E7000008E7000008F4
:10005000E700000851010008E7000008E700000879
:10006000E7000008E7000008E7000008E7000008D4
:10007000E7000008E7000008E7000008E7000008C4
:10008000E7000008E7000008E7000008E7000008B4
:10009000E7000008E7000008E7000008E7000008A4
:1000A000E7000008E7000008E7000008E700000894
:1000B000E7000008E7000008E7000008E700000884
:1000C0000348854600F014F8004800476502000820
:1000D000000400200448804704480047FEE7FEE78C
:1000E000FEE7FEE7FEE7FEE7E1010008C1000008C9
:1000F000064C0125064E05E0E36807CC2B430C3C7B
:1001000098471034B442F7D3FFF7DEFF900200089F
:10011000A00200080A4841690122520411434161CA
:100120000849012008608860C860074920200860ED
:1001300006490868FF2212029043086070470000D9
:10014000001002400004014000E100E004E400E08F
:1001500008484169CA07084908D0426901231A437F
:1001600042614869202250404861704710208861F0
:10017000704700000004014000000048FEE770479F
:100180007047704713491120086013484168416067
:100190004168416041687B22D203914341604168DC
:1001A0000522D20411434160016801221206114365
:1001B000016001688901FCD54168890889004160B6
:1001C000416802221143416041680907890F0229F1
:1001D000FAD1704700200240001002407047000032
:1001E00010B5144801680122114301604168124AA8
:1001F000114041600168114A11400160016801220B
:1002000092049143016041683F221204914341608E
:10021000C16A09090901C162016B094A1140016300
:10022000416B49084900416300218160FFF7AAFF43
:1002300010BD0000001002400CB8FF08FFFFF6FEE2
:100240002CFEFCFF02E008C8121F08C1002AFAD1E8
:1002500070477047002001E001C1121F002AFBD146
:10026000704700000948416901225204114341616D
:100270000920C00601680F221202914305221202D2
:1002800089180160FFF746FFFEE7000000100240FA
:10029000A002000800000020000400005402000832
:04000005080000C12E
:00000001FF
