:020000040800F2
:1000000018040020D500000823020008210200087F
:1000100000000000000000000000000000000000E0
:100020000000000000000000000000006B0200085B
:10003000000000000000000069020008C50200087E
:10004000E7000008E7000008E7000008E7000008F4
:10005000E7000008D1010008E7000008E7000008F9
:10006000E700000865010008E7000008E700000855
:1000700015010008E7000008E7000008E700000895
:10008000E7000008E7000008E7000008E7000008B4
:10009000E7000008E7000008E7000008E7000008A4
:1000A000E7000008E7000008E7000008E700000894
:1000B000E7000008E7000008E7000008E700000884
:1000C0000348854600F014F800480047B1030008D3
:1000D000180400200448804704480047FEE7FEE774
:1000E000FEE7FEE7FEE7FEE72D030008C10000087B
:1000F000064C0125064E05E0E36807CC2B430C3C7B
:1001000098471034B442F7D3FFF7DEFF1405000818
:100110003405000810480168C90616D510214204AC
:1001200091614B04936102680A43026082680A434A
:1001300082600A4881684908490081600321C160E2
:1001400081680122114381607047054801880422BB
:10015000114301807047000000240140000002406C
:100160000000002010B5174801680122890702230A
:10017000002916DA8168914381600321C16081689A
:10018000114381604168194341600920C0064169FB
:100190002022514041610C48816804221143816052
:1001A00010BD01680C07094907D50B8813430B8064
:1001B000416808221143416010BD08881843088037
:1001C00010BD00000000024000240140000000209B
:1001D00010B510484169C90716D041690122114381
:1001E00041610D48816842044B071021002B836850
:1001F00005DA0B43836091612020906110BD0424D7
:1002000023438360916210BD044801880822114392
:10021000018010BD000401400024014000000020C6
:10022000FEE770478307FF22DB0E9A408907090E1D
:10023000994000280BDA0007000F083883080848A7
:100240009B001818C36993430B43C361704783082D
:1002500004489B001B1818689043084318607047B7
:1002600000ED00E000E400E0704770471349112002
:1002700008601348416841604168416041687B22E1
:10028000D2039143416041680522D2041143416089
:100290000168012212061143016001688901FCD541
:1002A0004168890889004160416802221143416028
:1002B00041680907890F0229FAD1704700200240DE
:1002C0000010024030B5184809214268C906521E84
:1002D000642310244260521C10D105882022002D76
:1002E0001BD00588FF2D09D005886D006D1E458047
:1002F0007D252D01456083608C618A624288002AD9
:100300000AD085686D1E85606D1C05D14D696540FC
:100310004D61521E8360428030BD4D6955404D6134
:100320007D22D2004260E9E70000002010B51448A9
:1003300001680122114301604168124A1140416085
:100340000168114A11400160016801229204914341
:10035000016041683F22120491434160C16A09096A
:100360000901C162016B094A11400163416B4908EF
:100370004900416300218160FFF778FF10BD000054
:10038000001002400CB8FF08FFFFF6FE2CFEFCFF39
:1003900002E008C8121F08C1002AFAD1704770474E
:1003A000002001E001C1121F002AFBD170470000AC
:1003B0004D4F796901204004014379610921C90643
:1003C0000A680F231B029A4305231B02D2180A60F6
:1003D0007969014379614548012505608560444E8E
:1003E0002020306029460520FFF71CFF6802B86115
:1003F0007868A902084378603E4CA068C00702D024
:10040000A068A843A060A0680121C9070843A060B4
:10041000A0680028FCDB00BF00BFA0682843A060E4
:100420002068C007FCD020690121890708432061AA
:10043000E06849140843E0602F48A0626069072122
:1004400008436061102060602C4881680122920599
:10045000114381608014306000210C20FFF7E2FE20
:10046000786928437861E0682843E060214924489E
:1004700040310161234941610321C1608168224A01
:1004800011438160816829438160401530600021FB
:100490000920FFF7C7FEA06804210843A06019489F
:1004A0000C3800E030BF01880229FBD3A068400768
:1004B00003D5A06810210843A060A068C006FCD442
:1004C000A06802210843A060A068C007FCD1104CBE
:1004D0000E4860610321081FFFF7A4FE0020A06101
:1004E00007202061FEE700000010024000040140E8
:1004F00000E100E000240140C000020000270140AC
:10050000000002400C0000208A0500007FBB0000B4
:1005100000E000E0340500080000002014000000A6
:10052000900300084805000814000020040400009F
:10053000A003000800000000E803000064000000C1
:080540000000000000000000B3
:04000005080000C12E
:00000001FF
