:020000040800F2
:1000000000040020D50000088701000885010008D1
:1000100000000000000000000000000000000000E0
:100020000000000000000000000000008B0100083C
:10003000000000000000000089010008190200080B
:10004000E7000008E7000008E7000008E7000008F4
:10005000E700000855010008E7000008E700000875
:10006000E7000008E7000008E7000008E7000008D4
:10007000E7000008E7000008E7000008E7000008C4
:10008000E7000008E7000008E7000008E7000008B4
:10009000E7000008E7000008E7000008E7000008A4
:1000A000E7000008E7000008E7000008E700000894
:1000B000E7000008E7000008E7000008E700000884
:1000C0000348854600F014F800480047A1020008E4
:1000D000000400200448804704480047FEE7FEE78C
:1000E000FEE7FEE7FEE7FEE71D020008C10000088C
:1000F000064C0125064E05E0E36807CC2B430C3C7B
:1001000098471034B442F7D3FFF7DEFF1803000816
:10011000280300080B4881680909090181600A4821
:10012000026801210A43026082680A43826007492B
:100130000868FF22120290430860054920200860E9
:1001400070470000000001400004014004E400E0AA
:1001500000E100E000B50948416901221143416115
:1001600000F040F8064841690122520251404161C5
:10017000416952105140416100BD0000000401403E
:1001800000080048FEE77047704770471349112088
:1001900008601348416841604168416041687B22C2
:1001A000D2039143416041680522D204114341606A
:1001B0000168012212061143016001688901FCD522
:1001C0004168890889004160416802221143416009
:1001D00041680907890F0229FAD1704700200240BF
:1001E000001002400B480168012212061143016011
:1001F00001688901FCD5416889088900416041682E
:1002000002221143416041680907890F0229FAD18E
:1002100070470000001002407047000010B51448FD
:1002200001680122114301604168124A1140416096
:100230000168114A11400160016801229204914352
:10024000016041683F22120491434160C16A09097B
:100250000901C162016B094A11400163416B490800
:100260004900416300218160FFF790FF10BD00004D
:10027000001002400CB8FF08FFFFF6FE2CFEFCFF4A
:1002800002E008C8121F08C1002AFAD1704770475F
:10029000002001E001C1121F002AFBD170470000BD
:1002A000184841690122D20411434161164C21686A
:1002B0000F221204914305221204891821608169DA
:1002C000E20211438161114A536802210B435360DA
:1002D0000F4A136904252B4313610E4A13688B439D
:1002E00013604169A201114341610920C006016800
:1002F000890889000160FFF70DFFE801A06130BFA8
:10030000FDE70000001002400008004800580140CE
:1003100000ED00E00070004028030008000000200D
:08032000000400009002000837
:04000005080000C12E
:00000001FF
