:020000040800F2
:1000000008040020D50000082D020008C9010008DE
:1000100000000000000000000000000000000000E0
:10002000000000000000000000000000BF02000807
:100030000000000000000000BD02000841030008AD
:10004000E7000008E7000008E7000008E7000008F4
:10005000E700000895010008E7000008E700000835
:10006000E7000008E7000008E7000008E7000008D4
:10007000E7000008E7000008E7000008E7000008C4
:10008000E7000008E7000008E7000008E7000008B4
:10009000E7000008E7000008E7000008CD010008BD
:1000A000E7000008E7000008E7000008E700000894
:1000B000E7000008E7000008E7000008E700000884
:1000C0000348854600F014F800480047350400084E
:1000D000080400200448804704480047FEE7FEE784
:1000E000FEE7FEE7FEE7FEE799030008C10000080F
:1000F000064C0125064E05E0E36807CC2B430C3C7B
:1001000098471034B442F7D3FFF7DEFFCC05000860
:10011000EC05000810B51C48C069012149050843D9
:100120001949C8610846006B102108431649086345
:100130000B200005154908611548086008468068CD
:10014000B42108431149886008468068C9130843F0
:100150000E4988600846C068F62108430B49C8600C
:100160000846C068891508430849C8600846C06841
:10017000C91308430549C8600021172000F062F840
:10018000172000F055F810BD001002400054004048
:1001900005000A000A4840690121084308494861EE
:1001A00008488069C007C00F002808D05A200549B8
:1001B000886208464068491408430249486070470D
:1001C000000401400058004000BFFEE71548816967
:1001D00008200840082806D100BF1248C06908223C
:1001E0001043104AD0610420084004280DD100BFFC
:1001F0000C48406A5A2813D10920C00640692022C1
:1002000050400922D20650610AE010200922D2068D
:100210009061172001228240034B1A6000BF00BF8B
:10022000704700000054004080E100E0704700008B
:10023000C206D20E01219140014A116070470000B0
:1002400000E100E010B5002819DA1A4A03071B0F75
:10025000083B9B089B00D2588307DC0EFF23A3407A
:100260009A438B071B0E8407E40EA3401A43114BDD
:100270000407240F083CA408A4001A5118E00E4AF1
:1002800003231B02D21883089B00D2588307DC0E7D
:10029000FF23A3409A438B071B0E8407E40EA34061
:1002A0001A43054B032424021B198408A4001A5185
:1002B00010BD00001CED00E000E100E07047704759
:1002C00011201D4908601D4840681C4948600846C7
:1002D00040684860084640687B21C9038843174945
:1002E0004860084640680521C9040843134948602E
:1002F000084600680121090608431049086000BF4C
:100300000E4800680121490608400028F8D00B4833
:10031000406880088000094948600846406802211A
:1003200008430649486000BF044840680C21084063
:100330000828F9D170470000002002400010024058
:100340001248007800281FD111488069C007C00FEB
:10035000002819D00F480088002807D10C484068B1
:100360000121490308430A49486002E05A2008492C
:10037000886208480088401C0649088008460088B2
:100380000A2801DD002008807047000000000020DE
:10039000005800400200002010B51A4800680121F2
:1003A000084318490860084640681749084015493D
:1003B0004860084600681549084012490860084628
:1003C00000680121890488430E4908600846406896
:1003D0003F21090488430B4948600846C06A000968
:1003E0000001C8620846006B0949084005490863D6
:1003F0000846406B40084000486300208860FFF7D3
:100400005FFF10BD001002400CB8FF08FFFFF6FEB2
:100410002CFEFCFF02E008C8121F08C1002AFAD116
:1004200070477047002001E001C1121F002AFBD174
:10043000704700005A4C601E5A49884200D90CE0AF
:10044000601E594948610321081FFFF7FBFE002089
:10045000554988610720086100BF00BF53484069C3
:10046000012149040843514948610920C006006838
:100470000F21090288430521090240180921C906F4
:10048000086000BF00BF4948406901218904084352
:100490004649486146484068C0210843444948608D
:1004A0000846006A0002000A890340180901401842
:1004B0003F490862084600680F2109038843052167
:1004C000490340183A49086000BFFFF723FE00BF08
:1004D0003648406901218904084334494861344859
:1004E0004068032189020843314948600846406A50
:1004F000FF2109028843FF3001300121090308432D
:100500002B494862084600680F21090588430521E8
:10051000490540182649086000BF00BF2348C0694C
:10052000090308432149C861224823490861234837
:10053000886008460068012108431F490860204878
:10054000486000BF00BF19484069012149040843C1
:10055000164948610920C00600688008800009210A
:10056000C906086000BF00BF164880680009000186
:100570001449886014480068012108431249086042
:1005800008468068012108430F4988600021052042
:10059000FFF758FE0520FFF74BFE00BF00BFFEE748
:1005A00080BB0000FFFFFF0000E000E00010024001
:1005B000000400484B1AB0000058004003800000BF
:1005C000B4000A020000014000040140EC050008EC
:1005D000000000200400000014040008F0050008DA
:1005E00004000020040400002404000800000000AF
:04000005080000C12E
:00000001FF
