:020000040800F2
:1000000018040020D5000008B3010008B101000861
:1000100000000000000000000000000000000000E0
:10002000000000000000000000000000FB010008CC
:100030000000000000000000F9010008550200085F
:10004000E7000008E7000008E7000008E7000008F4
:10005000E700000855010008E7000008E700000875
:10006000E7000008E7000008E7000008E7000008D4
:1000700015010008E7000008E7000008E700000895
:10008000E7000008E7000008E7000008E7000008B4
:10009000E7000008E7000008E7000008E7000008A4
:1000A000E7000008E7000008E7000008E700000894
:1000B000E7000008E7000008E7000008E700000884
:1000C0000348854600F014F800480047450300083F
:1000D000180400200448804704480047FEE7FEE774
:1000E000FEE7FEE7FEE7FEE7C1020008C1000008E8
:1000F000064C0125064E05E0E36807CC2B430C3C7B
:1001000098471034B442F7D3FFF7DEFF9404000899
:10011000B40400080C480168CA060C490ED50C4A04
:100120008315936193039361036810221343036063
:100130008368134383600888012201E00888042251
:100140001043088070470000002401400000002098
:100150000008004810B513494869C20712481ED06C
:100160004A6901231A434A6110498A68520711D526
:10017000096849070DD50D4940310A68C168044630
:100180004B001034E252491CC160042901D3002104
:10019000C16010BD018802221143018010BD018899
:1001A0000822F9E70004014000000020002401407B
:1001B000FEE770478307FF22DB0E9A408907090E8E
:1001C000994000280BDA0007000F08388308084818
:1001D0009B001818C36993430B43C361704783089E
:1001E00004489B001B181868904308431860704728
:1001F00000ED00E000E400E0704770471349112073
:1002000008601348416841604168416041687B2251
:10021000D2039143416041680522D20411434160F9
:100220000168012212061143016001688901FCD5B1
:100230004168890889004160416802221143416098
:1002400041680907890F0229FAD17047002002404E
:100250000010024030B51848FF2442681749521E6A
:10026000C82301344260521C10D105886200002D61
:100270001BD00588FF2D09D005886D006D1E4580B7
:100280007D256D01456083608C618A624288002A09
:100290000AD085686D1E85606D1C05D14D6965406D
:1002A0004D61521E8360428030BD4D6955404D61A5
:1002B0007D2212014260E9E70000002000080048AA
:1002C00010B5144801680122114301604168124AC7
:1002D000114041600168114A11400160016801222A
:1002E00092049143016041683F22120491434160AE
:1002F000C16A09090901C162016B094A1140016320
:10030000416B49084900416300218160FFF776FF96
:1003100010BD0000001002400CB8FF08FFFFF6FE01
:100320002CFEFCFF02E008C8121F08C1002AFAD107
:1003300070477047002001E001C1121F002AFBD165
:1003400070470000484E70690121C904084370617C
:10035000464D28680F2109048843052109044018E7
:1003600028607069A9010843706141480124046054
:100370008460404F2020386021460520FFF71AFF97
:10038000B06961020843B0617068B02108437060D1
:1003900039488168C90702D08168A14381608168BA
:1003A0000122D2071143816081680029FCDB716959
:1003B00007225204114371610922D20613680C21ED
:1003C0000B4313602D4A13680B4313602968032203
:1003D000114329608168214381600168C907F9D010
:1003E0000446C068032149030843E0602448A06232
:1003F0006069072630436061102060602148816891
:1004000001229205114381608014386000210C2084
:10041000FFF7D0FE1C480027C760A16804221143E3
:10042000A160D101A96100E030BF0188FF29FBD0A4
:10043000A068400703D5A06810210843A060A06809
:10044000C006FCD4A06802210843A060A068C007D1
:10045000FCD10F4C0D4860610321081FFFF7AAFE75
:10046000A7612661FEE70000001002400008004876
:100470000004014000E100E00024014000040048C5
:10048000020602000027014000000020B70B000018
:1004900000E000E0B40400080000002018000000A4
:1004A00024030008CC040008180000200004000009
:1004B00034030008FF000000D0070000C80000005F
:0C04C00000000000000000000000000030
:04000005080000C12E
:00000001FF
