:020000040800F2
:1000000010040020D50000081701000815010008A1
:1000100000000000000000000000000000000000E0
:10002000000000000000000000000000C301000804
:100030000000000000000000C10100081D020008CF
:10004000E7000008E7000008E7000008E7000008F4
:10005000E7000008E7000008E7000008E7000008E4
:10006000E7000008E7000008E7000008E7000008D4
:10007000E7000008E7000008E7000008E7000008C4
:10008000E7000008E7000008E7000008E7000008B4
:10009000E7000008E7000008E7000008E7000008A4
:1000A000E7000008E7000008E7000008E700000894
:1000B000E7000008E7000008E7000008E700000884
:1000C0000348854600F014F800480047090300087B
:1000D000100400200448804704480047FEE7FEE77C
:1000E000FEE7FEE7FEE7FEE785020008C100000824
:1000F000064C0125064E05E0E36807CC2B430C3C7B
:1001000098471034B442F7D3FFF7DEFF000400082D
:1001100020040008FEE7704730B51248016920222C
:1001200011430161016940231943016100BFC168A6
:10013000C907FCD1C1688906C16801D511430AE02D
:10014000CC0609491023002C07DA0C8808252C431B
:100150000C80C1681943C16000E00B8001699143C4
:10016000016130BD002002400000002010B5124A9D
:10017000146910231C431461018000BF00BFD068C4
:10018000C007FCD1D0688006D06801D5202105E0E9
:1001900041070A4804D504210180D068084306E0DD
:1001A000D168C90604D508210180D0681843D06001
:1001B00010699843106110BD00200240000000202B
:1001C0007047704713491120086013484168416027
:1001D0004168416041687B22D2039143416041689C
:1001E0000522D20411434160016801221206114325
:1001F000016001688901FCD5416889088900416076
:10020000416802221143416041680907890F0229B0
:10021000FAD17047002002400010024030B5184863
:1002200009218268C906521E642310248260521C70
:1002300010D105882022002D1BD00588FF2D09D064
:1002400005886D006D1E45807D256D018560C3604C
:100250008C618A624288002A0AD0C5686D1EC5601A
:100260006D1C05D14D6965404D61521EC3604280D1
:1002700030BD4D6955404D617D22D2008260E9E775
:100280000000002010B514480168012211430160EC
:100290004168124A114041600168114A11400160F1
:1002A0000168012292049143016041683F221204D7
:1002B00091434160C16A09090901C162016B094AA0
:1002C00011400163416B490849004163002181608D
:1002D000FFF778FF10BD0000001002400CB8FF08C7
:1002E000FFFFF6FE2CFEFCFF02E008C8121F08C14B
:1002F000002AFAD170477047002001E001C1121FA7
:10030000002AFBD1704700003148416901225204A4
:10031000114341610920C00601680F221202914376
:1003200005221202891801602A48C168C907FCD158
:100330000169294A0B06294901D5426041600369D8
:100340009B0501D482608160254DA8886F13022629
:10035000244CB84227D1666025E0FFF7DDFEA8886F
:10036000B84203D02188012001432180AA212846D8
:10037000FFF7FCFE1A483421001DFFF7F7FE18486E
:100380001221801DFFF7F2FE29881748814207D10C
:10039000A8881649884203D1E9881548814202D0CD
:1003A0002088304320806068401E6060401CD4D1AB
:1003B00011481049416111490723CA691202120A02
:1003C00044042243CA61002181610361FEE7000009
:1003D000001002400020024023016745AB89EFCDA9
:1003E00000F8FF1F00000020AA55000034CB0000D9
:1003F00012ED00007FBB000000E000E004ED00E033
:10040000200400080000002010000000E80200089E
:10041000300400081000002000040000F80200086A
:100420000000000001000000E8030000640000007C
:04000005080000C12E
:00000001FF
