:020000040800F2
:1000000010040020D50000081701000815010008A1
:1000100000000000000000000000000000000000E0
:100020000000000000000000000000001B010008AC
:100030000000000000000000190100087501000820
:10004000E7000008E7000008E7000008E7000008F4
:10005000E7000008E7000008E7000008E7000008E4
:10006000E7000008E7000008E7000008E7000008D4
:10007000E7000008E7000008E7000008E7000008C4
:10008000E7000008E7000008E7000008E7000008B4
:10009000E7000008E7000008E7000008E7000008A4
:1000A000E7000008E7000008E7000008E700000894
:1000B000E7000008E7000008E7000008E700000884
:1000C0000348854600F014F8004800476502000820
:1000D000100400200448804704480047FEE7FEE77C
:1000E000FEE7FEE7FEE7FEE7E1010008C1000008C9
:1000F000064C0125064E05E0E36807CC2B430C3C7B
:1001000098471034B442F7D3FFF7DEFF9C03000892
:10011000BC030008FEE77047704770471349112081
:1001200008601348416841604168416041687B2232
:10013000D2039143416041680522D20411434160DA
:100140000168012212061143016001688901FCD592
:100150004168890889004160416802221143416079
:1001600041680907890F0229FAD17047002002402F
:100170000010024030B51848FF2442681749521E4B
:10018000C82301344260521C10D105886200002D42
:100190001BD00588FF2D09D005886D006D1E458098
:1001A0007D252D01456083608C618A624288002A2A
:1001B0000AD085686D1E85606D1C05D14D6965404E
:1001C0004D61521E8360428030BD4D6955404D6186
:1001D0007D22D2004260E9E70000002000080048CC
:1001E00010B5144801680122114301604168124AA8
:1001F000114041600168114A11400160016801220B
:1002000092049143016041683F221204914341608E
:10021000C16A09090901C162016B094A1140016300
:10022000416B49084900416300218160FFF776FF77
:1002300010BD0000001002400CB8FF08FFFFF6FEE2
:100240002CFEFCFF02E008C8121F08C1002AFAD1E8
:1002500070477047002001E001C1121F002AFBD146
:1002600070470000424A50690121C90408435061A7
:10027000404908680F231B04984305231B04C0183A
:1002800008609069531518439061506B0124204316
:100290005063506B8007FCD537488368DB0703D079
:1002A00083685B085B00836083680125ED072B434F
:1002B00083608368002BFCDB8368234383600368CF
:1002C000DB07F9D0C36809252D022B43C360012346
:1002D0005B048362456907231D434561274DAE6872
:1002E0000127BF053E43AE609569BE113543956158
:1002F000234A5568202635435560224D9562224D8C
:10030000D562156825431560826804242243826003
:10031000194EE5011D4A403607E004686407FCD524
:100320003468D4604C696C404C611488002CF4D063
:100330008168490703D58168102211438160816873
:10034000C906FCD481680222114381608168C90713
:10035000FCD110480E4941610F49CA691202120AC4
:1003600044042243CA61002181610361FEE7000069
:10037000001002400008004800240140002701400E
:1003800000400140BF03000050C3000000000020F7
:100390007FBB000000E000E004ED00E0BC030008CB
:1003A000000000201000000044020008CC030008F8
:1003B00010000020000400005402000800000000AB
:0C03C000E8030000C8000000000000007E
:04000005080000C12E
:00000001FF
