:020000040800F2
:1000000018040020D5000008DB010008D901000811
:1000100000000000000000000000000000000000E0
:1000200000000000000000000000000023020008A3
:100030000000000000000000210200087D0200080E
:10004000E7000008E7000008E7000008E7000008F4
:10005000E7000008E7000008E7000008E7000008E4
:10006000E7000008E7000008E7000008E7000008D4
:1000700015010008E7000008E7000008E700000895
:10008000E7000008E7000008E7000008E7000008B4
:10009000E7000008E7000008E7000008E7000008A4
:1000A000E7000008E7000008E7000008E700000894
:1000B000E7000008E7000008E7000008E700000884
:1000C0000348854600F014F8004800476D03000817
:1000D000180400200448804704480047FEE7FEE774
:1000E000FEE7FEE7FEE7FEE7E9020008C1000008C0
:1000F000064C0125064E05E0E36807CC2B430C3C7B
:1001000098471034B442F7D3FFF7DEFF64040008C9
:100110008404000870B518490A688C200242174808
:1001200004D1018802221143018070BD0A68144B7A
:10013000120607D5028801242243028080220A6029
:1001400052009A610A68520709D50B4A4032146876
:10015000C2680A4E550010367453521CC2600A68B9
:100160001207E2D508220A600021C1605869910196
:100170004840586170BD000000240140000000208C
:100180000008004810B50E48C1680E4A1143C1600E
:100190000D4901620D4981624169072211434161A4
:1001A0008C2141600A4881680122920511438160D7
:1001B00008498014086000210C2000F00FF810BDE1
:1001C000002401400020C004E007000902060100ED
:1001D0000027014000E100E0FEE770478307FF22AF
:1001E000DB0E9A408907090E994000280BDA0007B8
:1001F000000F0838830808489B001818C369934308
:100200000B43C3617047830804489B001B181868A0
:10021000904308431860704700ED00E000E400E000
:1002200070477047134911200860134841684160C6
:100230004168416041687B22D2039143416041683B
:100240000522D204114341600168012212061143C4
:10025000016001688901FCD5416889088900416015
:10026000416802221143416041680907890F022950
:10027000FAD17047002002400010024030B5184803
:10028000FF2442681749521EC82301344260521CA1
:1002900010D105886200002D1BD00588FF2D09D0E4
:1002A00005886D006D1E45807D252D0145608360AC
:1002B0008C618A624288002A0AD085686D1E85603A
:1002C0006D1C05D14D6965404D61521E83604280B1
:1002D00030BD4D6955404D617D22D2004260E9E755
:1002E000000000200008004810B5144801680122F1
:1002F000114301604168124A114041600168114A8E
:10030000114001600168012292049143016041683B
:100310003F22120491434160C16A09090901C16287
:10032000016B094A11400163416B4908490041636F
:1003300000218160FFF776FF10BD00000010024031
:100340000CB8FF08FFFFF6FE2CFEFCFF02E008C819
:10035000121F08C1002AFAD170477047002001E03F
:1003600001C1121F002AFBD17047000036484169C5
:100370000122D2041143416134490A680F231B044E
:100380009A4305231B04D2180A60826943151A4355
:100390008261436B012213434363436B9B07FCD58C
:1003A0002B4CA368DB0703D0A3685B085B00A3604A
:1003B000A3680125ED072B43A360A368002BFCDB9A
:1003C000436907256D042B4343610923DB061D6840
:1003D0000C2005431D601F4B1D6805431D60086808
:1003E000032318430860A0681043A0602068C0077A
:1003F000F9D0FFF7C7FE18480025C560A1680422A0
:100400001143A16000E030BF01880229FBD3A0683E
:10041000400703D5A06810210843A060A068C0066B
:10042000FCD4A06802210843A060A068C007FCD1EA
:100430000B4C0A4860610321081FFFF7CFFEA5613E
:1004400007202061FEE7000000100240000800487D
:100450000024014000040048000000207FBB000091
:1004600000E000E084040008000000201800000004
:100470004C0300089C040008180000200004000041
:100480005C03000800000000E8030000C800000052
:0C04900000000000000000000000000060
:04000005080000C12E
:00000001FF
