:020000040800F2
:1000000018040020D50000088701000885010008B9
:1000100000000000000000000000000000000000E0
:10002000000000000000000000000000CF010008F8
:100030000000000000000000CD01000829020008B7
:10004000E7000008E7000008E7000008E7000008F4
:10005000E7000008E7000008E7000008E7000008E4
:10006000E700000855010008E7000008E700000865
:1000700015010008E7000008E7000008E700000895
:10008000E7000008E7000008E7000008E7000008B4
:10009000E7000008E7000008E7000008E7000008A4
:1000A000E7000008E7000008E7000008E700000894
:1000B000E7000008E7000008E7000008E700000884
:1000C0000348854600F014F800480047190300086B
:1000D000180400200448804704480047FEE7FEE774
:1000E000FEE7FEE7FEE7FEE795020008C100000814
:1000F000064C0125064E05E0E36807CC2B430C3C7B
:1001000098471034B442F7D3FFF7DEFF88040008A5
:10011000A80400080C480168CA060C490ED50C4A10
:100120008315936193039361036810221343036063
:100130008368134383600888012201E0088808224D
:100140001043088070470000002401400000002098
:1001500000080048094908680207094808D50288CC
:1001600002231A43028048680822104348607047FF
:100170000188042211430180704700000000024002
:1001800000000020FEE770478307FF22DB0E9A4045
:100190008907090E994000280BDA0007000F08387C
:1001A000830808489B001818C36993430B43C36135
:1001B0007047830804489B001B1818689043084345
:1001C0001860704700ED00E000E400E07047704701
:1001D000134911200860134841684160416841603B
:1001E00041687B22D2039143416041680522D204D9
:1001F0001143416001680122120611430160016848
:100200008901FCD541688908890041604168022262
:100210001143416041680907890F0229FAD17047EB
:10022000002002400010024030B51848FF24426808
:100230001749521EC82301344260521C10D1058850
:100240006200002D1BD00588FF2D09D005886D00A8
:100250006D1E45807D252D01456083608C618A621D
:100260004288002A0AD085686D1E85606D1C05D104
:100270004D6965404D61521E8360428030BD4D69BD
:1002800055404D617D22D2004260E9E70000002028
:100290000008004810B514480168012211430160AC
:1002A0004168124A114041600168114A11400160E1
:1002B0000168012292049143016041683F221204C7
:1002C00091434160C16A09090901C162016B094A90
:1002D00011400163416B490849004163002181607D
:1002E000FFF776FF10BD0000001002400CB8FF08B9
:1002F000FFFFF6FE2CFEFCFF02E008C8121F08C13B
:10030000002AFAD170477047002001E001C1121F96
:10031000002AFBD170470000504D68690121C904D3
:10032000084368614E4E30680F2109048843052157
:10033000090440183060A86969150843A861686815
:10034000490008436860474CA068C00703D0A06814
:1003500040084000A060A0680121C9070843A060D0
:10036000A0680028FCDB686907214904084368612C
:100370000921C9060A680C2002430A603A490A6842
:1003800002430A6030680321084330600127A068F7
:100390003843A0602068C007F9D02069012189078F
:1003A00008432061E06849140843E0602F48A062D8
:1003B0006069072108436061102060602C488168F3
:1003C000012292051143816081142A4801600021B5
:1003D0000C20FFF7D9FE686938436861E0680321A3
:1003E0000843E0601F4924484031016123494161CD
:1003F0000421C1608168B522D20011438160816807
:100400003943816045151B48056000210920FFF72D
:10041000BBFEA06804210843A060B56130BFB5628F
:10042000A068400703D5A06810210843A060A06819
:10043000C006FCD4A06802210843A060A068C007E1
:10044000FCD1104C0E4860610321081FFFF79CFE91
:100450000020A06107202061FEE70000001002409C
:100460000008004800240140000400480206020081
:100470000027014000E100E0000002400C000020E5
:100480007FBB000000E000E0A8040008000000209E
:1004900014000000F8020008BC040008140000204A
:1004A0000404000008030008FF000000E803000047
:0C04B000C8000000000000000000000078
:04000005080000C12E
:00000001FF
